:020000040800F2
:10000000D8C30120A907000881050008830500085E
:10001000870500088B0500088F0500080000000018
:100020000000000000000000000000009305000830
:100030009505000800000000FB8A01085928000807
:10004000C3070008C3070008C3070008C307000868
:10005000C3070008C3070008C3070008C307000858
:10006000C3070008C3070008C3070008C307000848
:10007000C3070008C3070008C3070008C307000838
:10008000C3070008C3070008C3070008C307000828
:10009000C3070008C3070008C3070008C307000818
:1000A000C3070008C3070008C3070008C307000808
:1000B000C3070008C3070008C3070008C3070008F8
:1000C000C3070008C3070008C3070008C3070008E8
:1000D000C3070008CB2E0008932A0008052C00084F
:1000E000C3070008C3070008C3070008C3070008C8
:1000F000C3070008C3070008C3070008C3070008B8
:10010000C30700083D570008C3070008C3070008DD
:10011000C3070008C3070008C3070008C307000897
:10012000C3070008C3070008C3070008C307000887
:10013000C3070008C3070008C3070008C307000877
:10014000C3070008C3070008C3070008C307000867
:10015000C3070008C3070008C3070008732D000881
:10016000C3070008C3070008C3070008C307000847
:10017000C3070008C3070008C3070008C307000837
:10018000C3070008C307000800F002F800F078F881
:100190000AA090E8000C82448344AAF10107DA45E2
:1001A00001D100F06DF8AFF2090EBAE80F0013F0BC
:1001B000010F18BFFB1A43F001031847A44B0400BA
:1001C000C44B040010F8013B0A4413F0030408BFB9
:1001D00010F8014B1D1108BF10F8015B641E05D01B
:1001E00010F8016B641E01F8016BF9D1002D15D0D8
:1001F00010F8014B03F00C030C2BA1EB04040ABF15
:1002000010F8013BA4EB8314A4EB032405F10103D4
:1002100014F8016B5B1E01F8016BF9D5914238BFF0
:1002200010F8013BD1D3704700230024002500269D
:10023000103A28BF78C1FBD8520728BF30C148BF49
:100240000B607047662919F02084642916F0EC854C
:10025000002070471FB519F00EFC16F036FE17F09F
:1002600025FA04000020002118F00AFE401C6060FE
:100270000020002118F0EEFDE0601FBD10B510BD9C
:1002800017F03CFB1146FFF7E5FF00F0ABF817F065
:10029000B5FD03B4FFF7F2FF03BC02F04FFC000012
:1002A00030BF72B6704762B6704780F308887047F7
:1002B0000B49D1F800C04A685CF8043B1068184448
:1002C00042F8040B8C4528BFA1F1DC0C8A4228BF00
:1002D000A1F1DC02C1F800C04A6020F00040704784
:1002E00070B90120704730B58BB0054600240AAACA
:1002F000012108460BF07DFC09F080FC00BF00BF27
:1003000000BF09F0B3FD044600BF00BF8748007876
:10031000401C8649087000BF00BF204609F0AAFDB6
:1003200000BF00BF00BF05F056FE0AA8032100224F
:100330000592CDE906210890104680210C227C4BC5
:10034000CDE90132CDE9031006200023AFF26B02A4
:1003500078A100907A480FF095FF09F04CFB07F068
:100360002CFD07F005FF06F0D1FF07F090FB08F029
:10037000A6F808F032FA0AA9724811F0F8FA0AA9A8
:100380006F4811F0F4FA00BF00BF00BF09F06EFD26
:10039000044600BF00BF65480078401E63490870EE
:1003A00008460078A0B968480088002809DD00BF29
:1003B00000BF204609F05EFD00BF00BF0CF002F850
:1003C0000DE000BF00BF204609F054FD00BF06E06D
:1003D00000BF00BF204609F04DFD00BF00BF00BFB9
:1003E0000BB030BD8AB0002400BFA82002F040FA54
:1003F0004FF4A06000F0F8F902F0C0FA4FF4964014
:1004000002F0AAFB4FF4165002F0E2FA4FF4E1308A
:1004100002F04EFC03F00FFB03F0B5FB05F0CCFB44
:100420000DE04AA006F044F84FF4FA7002F079FAB1
:100430004AA006F03DF84FF4FA7002F072FA04F0A8
:1004400051F90028EDD106F024FB012147A016F058
:100450003DF905F05BFC05F0B7FC05F05DFD4FF4E0
:10046000FA6002F05EFA09A80BF09AF900BF00BF2B
:1004700000BF09F0FBFC044600BF00BF2B4800781A
:10048000401C2A49087000BF00BF204609F0F2FC5A
:1004900000BF00BF00BF09A8032100220592CDE9DB
:1004A0000621089010464FF400713322304BCDE9FD
:1004B0000132CDE9031003200023AFF2D5122DA1A4
:1004C000009020480FF0DEFE00BF00BF00BF09F023
:1004D000CDFC044600BF00BF14480078401E1349FD
:1004E000087008460078A0B917480088002809DD80
:1004F00000BF00BF204609F0BDFC00BF00BF0BF0ED
:1005000061FF0DE000BF00BF204609F0B3FC00BF53
:1005100006E000BF00BF204609F0ACFC00BF00BFF2
:1005200000BF09A80BF005FC00BFFEE74007002054
:100530005811002074657374207461736B0000009F
:1005400090100020C80700200407002053442043D7
:10055000617264204572726F72210000506C656197
:10056000736520436865636B21200000303A00000A
:10057000900800207374617274207461736B0000C2
:10058000704700BFFEE700BFFEE700BFFEE700BF09
:10059000FEE77047704700000CB500200190009006
:1005A0007648006840F480307449086000BF7348A2
:1005B000006800F4003000900198401C0190009801
:1005C00018B90198B0F5A04FF1D16C48006800F45B
:1005D000003010B10120009001E000200090009850
:1005E000012846D165484030006840F0805063499A
:1005F000403108606248006840F44040604908604B
:100600005E48083000685D490831086008460068A7
:1006100040F4004008600846006840F4A0500860BC
:100620005848091F0860081F006840F08070091FC3
:10063000086000BF5148006800F000700028F9D041
:1006400040F20570504908604C480830006820F0BE
:1006500003004A49083108600846006840F002007B
:10066000086000BF45480830006800F00C0008280A
:10067000F8D10CBD10B54548006840F470004349FE
:1006800008603E48006840F001003C4908600020D6
:100690003A4908310860394800683D4908403749FF
:1006A00008603C48091D0860081F006820F480208D
:1006B000091F0860002031490C310860FFF76CFF0A
:1006C0004FF0006031498039086010BD70B50020DE
:1006D0000022022300240221284D08352D6805F050
:1006E0000C0020B1042806D0082834D107E02A4D98
:1006F0002A4E356033E02A4D284E35602FE01F4DDD
:100700002D1D2D68C5F380541C4D2D1D2D6805F041
:100710003F0154B1224DB5FBF1F5184E361D366838
:10072000C6F3881605FB06F209E01B4DB5FBF1F593
:10073000124E361D3668C6F3881605FB06F20F4DBD
:100740002D1D2D68C5F301456D1C6B00B2FBF3F543
:10075000124E356003E0104D104E356000BF00BFF3
:10076000064D08352D68C5F303150E4E705D0B4D13
:100770002D68C540094E356070BD0000003802404C
:100780000070004008544007003C024088ED00E043
:10079000FFFFF6FE103000240024F4007800002053
:1007A00000127A007C000020094880470948004771
:1007B000FEE7FEE7FEE7FEE7FEE7FEE7FEE7FEE711
:1007C000FEE7FEE704480549054A064B704700006E
:1007D0007506000889010008D8B90120D8C3012096
:1007E000D8BB0120D8BB012032490143324A1160F5
:1007F000704770B5002100230F22C4781CB32E4C23
:10080000246804F4E064C4F5E064C4F30721C1F192
:100810000404E3B20A4144789C40E1B28478144075
:1008200021430C07210E254C05786155047804F00E
:100830001F050124AC4005786D11AD0005F1E025E0
:10084000C5F8004109E0047804F01F050124AC401C
:100850001B4D0678761145F8264070BD194A0A40AE
:100860000243154B1B1F1A60704739B1124A121D03
:1008700012680243104B1B1D1A6006E00E4A121D3F
:10088000126882430C4B1B1D1A607047042808D164
:100890004FF0E021096941F004014FF0E0221161BD
:1008A00007E04FF0E021096921F004014FF0E02258
:1008B000116170470000FA050CED00E000E400E073
:1008C00080E100E080FFFF1F016821F0010101606D
:1008D0000021016041608160C160016121214161AD
:1008E000DB49884204D13D21D94A103A91608CE01D
:1008F000D7491831884205D14FF47461D44A103A6F
:10090000916082E0D2493031884205D14FF47411B0
:10091000CF4A103A916078E0CD494831884205D1FC
:100920004FF07461CA4A103A91606EE0C849603174
:10093000884204D1C749C64A103AD16065E0C4492B
:100940007831884204D1C449C14A103AD1605CE090
:10095000BF499031884204D1C049BD4A103AD160A4
:1009600053E0BB49A831884205D14FF03D51B84A08
:10097000103AD16049E0BA49884204D13D21B84AD1
:10098000083A116041E0B6491831884205D14FF468
:100990007461B34A083A116037E0B1493031884296
:1009A00005D14FF47411AE4A083A11602DE0AC49FC
:1009B0004831884205D14FF07461A94A083A116064
:1009C00023E0A7496031884204D1A249A44A121FFA
:1009D00011601AE0A2497831884204D19E49A04AA8
:1009E000121F116011E09E499031884204D19B4949
:1009F0009B4A121F116008E09949A831884204D12E
:100A00004FF03D51964A121F1160704710B50022F9
:100A10000268944B1A40CC680B6823434C6923430B
:100A20008C692343CC6923430C6A23434C6A2343D8
:100A30008C6A23434C6B23438C6B23431A43026021
:100A4000426922F00702D1E90B3423431A43426181
:100A50000B6943604B6883608B68C36010BD0021E5
:100A6000016041608160C160016141618161C1617A
:100A7000016241628162C1620163416381637047C7
:100A800021B1026842F00102026003E0026822F034
:100A900001020260704721B1026842F40042026024
:100AA00003E0026822F400420260704721B102684C
:100AB00042F02002026003E0026822F0200202609D
:100AC0007047416070470146486880B2704722B164
:100AD000036843F40023036003E0036823F4002366
:100AE00003600161704721B1026842F48022026014
:100AF00003E0026822F48022026070470AB10161BB
:100B000000E0C1607047014600200A6802F400223C
:100B10000AB1012000E000207047014600200A6869
:100B200002F001020AB1012000E0002070470146F6
:100B300000204A6902F03800704730B503460A4683
:100B400000200024464DAB4202D24149103901E059
:100B50004349103902F000550DB14C6800E00C68B3
:100B6000414D2C4004EA02050DB1012000E00020B7
:100B700030BD02463A4B9A4202D23548103801E065
:100B80003748103801F000531BB1374B0B40C3609E
:100B900002E0354B0B408360704710B501F08003D5
:100BA0004BB122B1436943F08003436103E04369E1
:100BB00023F08003436180290BD02AB1036801F040
:100BC0001E042343036004E0036801F01E04A343F2
:100BD000036010BD70B50246002000240025204EA1
:100BE000B24202D21A4B103B01E01D4B103B1F4E8C
:100BF0000E4036B11E2606EAD124166806EA040520
:100C000002E0566906F0800501F000560EB15C68FE
:100C100000E01C68144E344004EA010616B10DB120
:100C2000012000E0002070BD02460D4B9A4202D226
:100C30000748103801E00A48103801F000531BB192
:100C4000094B0B40C36002E0074B0B4083607047C9
:100C5000106002403D000020400F002000003D20B9
:100C6000106402403F801CF07D0F7D0F3C0F3C0F55
:100C700010B504469848844208D10121084600F086
:100C800086FB0021012000F082FB76E0934884423D
:100C900008D10121022000F07AFB0021022000F09F
:100CA00076FB6AE08E48844208D10121042000F0DE
:100CB0006EFB0021042000F06AFB5EE0894884425C
:100CC00008D10121082000F062FB0021082000F07B
:100CD0005EFB52E08448844208D10121102000F0DC
:100CE00056FB0021102000F052FB46E07F48844272
:100CF00008D10121202000F04AFB0021202000F033
:100D000046FB3AE07A48844208D10121402000F0B5
:100D10003EFB0021402000F03AFB2EE07548844263
:100D200008D10121802000F032FB0021802000F05A
:100D30002EFB22E07048844208D10121801500F08A
:100D400026FB0021A01500F022FB16E06B48844230
:100D500008D10121401500F01AFB0021601500F0B8
:100D600016FB0AE06648844207D10121001500F015
:100D70000EFB0021201500F00AFB10BDF0B50A465D
:100D800000210023002400BF3DE0012505FA01F306
:100D9000156805EA03049C4234D105684F00032618
:100DA000BE40B543056015794E00B5400668354331
:100DB00005601579012D02D01579022D16D18568AF
:100DC0004F000326BE40B543856055794E00B540BF
:100DD000866835438560456801268E40B543456089
:100DE000456896798E40B6B235434560C5684F0078
:100DF0000326BE40B543C560D5794E00B540C668F0
:100E00003543C560491C1029BFD3F0BD4FF6FF71B3
:100E100001600021017141718171C171704708B594
:100E20004FF480320092009A0A430092009AC26105
:100E3000C161009AC261C2690092C269009208BD94
:100E40000246002013690B400BB1012000E0002096
:100E500070470146086980B2704702460020536916
:100E60000B400BB1012000E00020704701464869AB
:100E700080B2704701837047418370470AB1018394
:100E800000E0418370474161704742694A404261D6
:100E90007047F0B5002300244D07ED0E02FA05F36C
:100EA000CE1000F1200555F826504E07F70E0F26FC
:100EB000BE40B543CF1000F1200646F82750CE10B3
:100EC00000F1200555F8265045EA0304CE1000F144
:100ED000200545F82640F0BD000002400004024015
:100EE00000080240000C02400010024000140240C2
:100EF00000180240001C0240002002400024024072
:100F000000280240F948006840F00100F7490860F5
:100F10000020F64908310860F4480068F4490840A8
:100F2000F2490860F348091D0860F348EF4984312D
:100F30000860F0481038091D0860EC48006820F48B
:100F40008020EA4908600020E8490C310860E74940
:100F50008C31086070470021E44A921C11701146E0
:100F60000870704710B501460022002300204A1186
:100F7000012A02D1DD4C236808E0022A03D1DB4CB0
:100F80007034236802E0D94C7434236801F01F02E6
:100F9000012494401C400CB1012000E0002010BD51
:100FA00038B5002000900024002500BF3120FFF755
:100FB000D9FF05460098401C00900098B0F5A04F5E
:100FC00001D0002DF2D03120FFF7CCFF08B1012471
:100FD00000E00024204638BD01460020C34A1068C6
:100FE00020F0F80040EAC10010607047C349086073
:100FF00070470021BD4A703211701170012802D073
:1010000004280AD104E00121B84A7032117005E0C9
:101010000521B64A7032117000E000BF00BF704772
:10102000B7490860704770B5049C41EA82150126F3
:10103000C6EB530645EA0645054345EA0465AB4E53
:10104000361D356070BDAD4908667047820142EAC1
:101050000172A64B84331A607047A84988667047AE
:1010600010B5830143EA016343EA02739F4C88345D
:10107000236010BDA14908677047A049C864704744
:1010800002460020994B0833186820F0EC6042EAD1
:1010900001031843954B083318607047024600203F
:1010A000924B0833186820F0784042EA0103184355
:1010B0008E4B083318607047014600208B4A083277
:1010C000106820F00300084310607047874808301C
:1010D000006800F00C00704701460020834A083287
:1010E000106820F0F00008431060704701460020AF
:1010F0007E4A0832106820F4E050084310607047C0
:1011000001460020794A0832106820F4604040EA25
:10111000C10010607047F0B50021002200240225B4
:1011200000260223714F08373F6807F00C0121B1F8
:10113000042905D0082937D105E0724F076036E051
:10114000714F076033E0694F3F1D3F68C7F380561A
:10115000664F3F1D3F6807F03F036EB16A4FB7FB14
:10116000F3F7DFF888C10CF1040CDCF800C0CCF315
:10117000881C07FB0CF40CE0624FB7FBF3F7DFF8B9
:101180006CC10CF1040CDCF800C0CCF3881C07FB2C
:101190000CF4564F3F1D3F68C7F301477F1C7D008D
:1011A000B4FBF5F7076002E0564F076000BF00BFD1
:1011B0004E4F08373F6807F0F0010909534F7A5C3A
:1011C0000768D7404760494F08373F6807F4E05148
:1011D000890A4E4F7A5C4768D7408760434F08378B
:1011E0003F6807F46041490B484F7A5C4768D74035
:1011F000C760F0BD002100F44072B2F5407F0AD113
:101200003A4A0832116821F4F811414A0240114368
:10121000364A08321160354A70321268C0F30B0347
:101220001A43324B70331A607047354944390860AD
:101230007047334940390860704736490860704745
:1012400001460020294A8C32106820F01F004A1EF7
:101250001043264A8C321060704701460020234A12
:101260008C32106820F4F8504A1E40EA02201F4ACF
:101270008C3210607047014600201C4A8C32106886
:1012800020F4401008431060704701460020174AC0
:101290008C32106820F4400008431060704701460B
:1012A0000020124A8C32106820F44030084310604D
:1012B000704719490860704739B10C4A30321268DA
:1012C00002430A4B30331A6006E0084A3032126893
:1012D0008243064B30331A607047F9B1034A343207
:1012E00012680243014B34331A601CE0003802409C
:1012F000FFFFF6EA103000240030002000004742D3
:10130000800E47420024F40000127A008C00002076
:10131000FFFCFF0F5C014742E01147428F4A126811
:1013200082438E4B1A60704739B18C4A121D126885
:1013300002438A4B1B1D1A6006E0884A121D126880
:101340008243864B1B1D1A60704739B1834A0C32A9
:1013500012680243814B0C331A6006E07F4A0C325C
:10136000126882437D4B0C331A60704739B17B4A57
:10137000103212680243794B10331A6006E0774A44
:10138000103212688243754B10331A60704739B1BE
:10139000724A243A12680243704B243B1A6006E0FA
:1013A0006E4A243A126882436C4B243B1A607047A1
:1013B00039B16A4A203A12680243684B203B1A60EE
:1013C00006E0664A203A12688243644B203B1A606A
:1013D000704739B1614A1C3A126802435F4B1C3BAB
:1013E0001A6006E05D4A1C3A126882435B4B1C3B64
:1013F0001A60704739B1594A143A12680243574B80
:10140000143B1A6006E0554A143A12688243534B63
:10141000143B1A60704739B1504A103A12680243BF
:101420004E4B103B1A6006E04C4A103A1268824359
:101430004A4B103B1A60704739B1484A1C32126857
:101440000243464B1C331A6006E0444A1C321268C1
:101450008243424B1C331A60704739B13F4A2032F5
:10146000126802433D4B20331A6006E03B4A2032AB
:1014700012688243394B20331A60704739B1374ABA
:10148000243212680243354B24331A6006E0334A93
:10149000243212688243314B24331A60704739B1C9
:1014A0002E4A2C32126802432C4B2C331A6006E071
:1014B0002A4A2C3212688243284B2C331A60704718
:1014C00039B1264A303212680243244B30331A6055
:1014D00006E0224A303212688243204B30331A60D1
:1014E0007047012808D11D493C31096841F00801C5
:1014F0001A4A3C32116007E018493C31096821F072
:101500000801164A3C321160704739B1134A273A34
:1015100012780243114B273B1A7006E00F4A273A14
:10152000127882430D4B273B1A7070470B484030AE
:10153000006840F0807009494031086070470146FA
:101540000020064A283A12680A400AB1012000E049
:10155000002070470149263908707047343802402E
:1015600010B50121C802FFF756FF00214FF40060BB
:10157000FFF751FF10BD00216C4A116847F6FF626A
:101580009143027D83681A4343681A43C3681A4330
:1015900003681A4303691A431143644A1160704790
:1015A00000210175016041608160C1600161704787
:1015B0005F49086070475D49091F086070475B48D4
:1015C000001F006800F0030070470021574B1B1DEF
:1015D00002681A601A1D11686FF30A01D0E901232D
:1015E0001A43C3681A4303691A4311434F4A083226
:1015F000116070470021016041608160C16001613C
:1016000070474A480C300068C0B2704708B50146C0
:101610000020009045481030084400900098006871
:1016200008BD0021414B203302681A601B1D42682F
:101630001A601A1D116821F0F701D0E902231A433C
:1016400003691A4343691A431143384A2832116027
:1016500070474FF0FF310160002141608160C1603F
:1016600001614161704731482C30006870472F4854
:101670007C30006870472D497C31086070472B48EA
:101680004430006870472B49086070472949091D9C
:1016900008607047274908310860704725490C31B8
:1016A000086070472449086070472349091D086095
:1016B000704701218143204A0832116070471E495A
:1016C0000C31086070471B4914390860704739B104
:1016D000164A383212680243144B38331A6006E057
:1016E000124A383212688243104B38331A607047FE
:1016F000014600200D4A303212680A400AB101202A
:1017000000E0002070470949343108607047014605
:101710000020064A303212680A400AB1012000E077
:10172000002070470149343108607047042C0140A3
:10173000A0802542A0852542AC81254210B50446F3
:10174000FE48844208D101210846FFF764FE0021CB
:101750000120FFF760FE9DE0B4F1804F08D1012128
:101760000846FFF747FE00210120FFF743FE91E006
:10177000F348844208D101210220FFF73BFE0021FB
:101780000220FFF737FE85E0EE48844208D10121B0
:101790000420FFF72FFE00210420FFF72BFE79E045
:1017A000E948844208D101210820FFF723FE0021E7
:1017B0000820FFF71FFE6DE0E448844208D10121B4
:1017C0001020FFF717FE00211020FFF713FE61E045
:1017D000DF48844208D101212020FFF70BFE0021C1
:1017E0002020FFF707FE55E0DA48844208D10121A6
:1017F0000220FFF710FE00210220FFF70CFE49E057
:10180000D548844209D101210804FFF704FE0021D4
:101810004FF48030FFF7FFFD3CE0D048844209D10F
:1018200001214804FFF7F7FD00214FF40030FFF7D6
:10183000F2FD2FE0CA48844209D101218804FFF754
:10184000EAFD00214FF48020FFF7E5FD22E0C548C6
:10185000844208D101214020FFF7CCFD0021402027
:10186000FFF7C8FD16E0C048844208D1012180205E
:10187000FFF7C0FD00218020FFF7BCFD0AE0BB4858
:10188000844207D101218015FFF7B4FD0021A01586
:10189000FFF7B0FD10BD00220288A84B98420ED081
:1018A000AC4B98420BD0B0F1804F08D0A44B98427B
:1018B00005D0A44B984202D0A34B984204D14FF6D6
:1018C0008F731A404B881A43A04B984207D0A04B05
:1018D000984204D04FF6FF431A400B891A43028006
:1018E0004B68C3620B880385944B984202D0994B96
:1018F000984201D18B7A03860123838270474FF08F
:10190000FF31416000210180018141808172704777
:101910000185828270470A46002101884FF68F7345
:10192000194011430180704741627047C16270479E
:101930000146486A70470146088D704721B1028808
:1019400042F00202028004E002884FF6FD731A4062
:101950000280704721B1028842F00402028004E054
:1019600002884FF6FB731A400280704721B102884B
:1019700042F08002028004E002884FF67F731A4032
:101980000280704702884FF6F7731A40028002887F
:101990000A430280704702884FF6FF431A400280D4
:1019A00002880A430280704721B1028842F0010296
:1019B000028004E002884FF6FE731A4002807047EE
:1019C00070B5002400220023058C4FF6FE763540CA
:1019D0000584028C8388048B4FF68F752C40B51ECE
:1019E0002C400D882C43751E2A408D892A434D8832
:1019F0002A43524DA84202D0564DA84213D14FF669
:101A0000F7752A40CD892A434FF6FB752A408D8809
:101A10002A434FF6FF652B404FF6FF552B400D8AAA
:101A20002B434D8A2B43838004838D684563028456
:101A300070BD70B5002400220023058C4FF6EF76B0
:101A400035400584028C8388048B48F6FF752C4052
:101A50004FF6FF452C400D884FF6FF7606EA052528
:101A60002C434FF6DF752A408D8906EA05152A4377
:101A70004D8806EA05152A43304DA84202D0354D5F
:101A8000A8421DD14FF67F752A40CD894FF6FF76CB
:101A900006EA05152A434FF6BF752A408D8806EAE7
:101AA00005152A434FF6FF352B404FF2FF752B40AB
:101AB0000D8A06EA85052B434D8A06EA85052B43E8
:101AC000838004838D688563028470BD70B50024B3
:101AD00000220023058C4FF6FF6635400584028CFA
:101AE0008388848B4FF68F752C404FF6FC752C4005
:101AF0000D882C434FF6FF552A408D894FF6FF760F
:101B000006EA05252A434D8806EA05252A430B4D9A
:101B1000A84202D00F4DA84238D14FF2FF752A409B
:101B2000CD894FF6FF7606EA05252A434FF6FF35A5
:101B30002A408D8806EA05252A4319E00000014065
:101B40000004004000080040000C0040001000406D
:101B500000140040000401400040014000440140E6
:101B60000048014000180040001C004000200040D8
:101B70004EF6FF752B404DF6FF752B400D8A06EA99
:101B800005152B434D8A06EA05152B438380848374
:101B90008D68C563028470BD70B5002200230024E7
:101BA000058C4EF6FF7635400584038C8488828B45
:101BB00048F6FF752A404FF6FF452A400D884FF63C
:101BC000FF7606EA05252A434DF6FF752B408D89E1
:101BD00006EA05352B434D8806EA05352B43FE4DB5
:101BE000A84202D0FD4DA84208D14BF6FF752C400B
:101BF0000D8A4FF6FF7606EA85152C438480828392
:101C00008D680564038470BD00210180418081805E
:101C100081608181C18101824182704770B5034634
:101C2000002000241846183001258D40ACB21D8CD0
:101C3000A5431D8409B108290AD100EB610005689C
:101C40004FF68F76354005600568154305600FE057
:101C50000D1FC5F34E052844056848F6FF7635404C
:101C6000056005684FF6FF7606EA022635430560F3
:101C700070BD4163704781637047C1637047016401
:101C800070470A460021018B4FF68F7319401143AC
:101C9000018370470A460021018B48F6FF73194003
:101CA0004FF6FF7303EA02231943018370470A4684
:101CB0000021818B4FF68F73194011438183704748
:101CC0000A460021818B48F6FF7319404FF6FF73D7
:101CD00003EA02231943818370470A460021018BDE
:101CE0004FF6F77319401143018370470A460021EC
:101CF000018B4FF2FF7319404FF6FF7303EA022383
:101D00001943018370470A460021818B4FF6F77310
:101D100019401143818370470A460021818B4FF29D
:101D2000FF7319404FF6FF7303EA022319438183BF
:101D300070470A460021018B4FF6FB73194011438F
:101D4000018370470A460021018B4FF6FF3319408B
:101D50004FF6FF7303EA02231943018370470A46D3
:101D60000021818B4FF6FB7319401143818370472B
:101D70000A460021818B4FF6FF3319404FF6FF735F
:101D800003EA02231943818370470A460021018B2D
:101D90004FF67F7319401143018370470A460021B3
:101DA000018BC1F30E014FF6FF7303EA02231943BF
:101DB000018370470A460021818B4FF67F731940DB
:101DC0001143818370470A460021818BC1F30E01C4
:101DD0004FF6FF7303EA02231943818370470A46D3
:101DE0000021018C4FF6FD731940114301847047A7
:101DF0000A460021018C4FF6F77319401143018404
:101E000070470A460021018C4FF6DF7319404FF6E8
:101E1000FF7303EA02131943018470470A46002145
:101E2000018C4FF67F7319404FF6FF7303EA0213DC
:101E30001943018470470A460021018C4FF6FF5375
:101E400019404FF6FF7303EA0223194301847047D8
:101E50000A460021018C4FF2FF7319404FF6FF73C1
:101E600003EA02231943018470470A460021018CCA
:101E70004DF6FF7319404FF6FF7303EA023319431F
:101E80000184704730B5002301248C40A3B2048C38
:101E90009C430484048C02FA01F5ADB22C43048403
:101EA00030BD30B5002304248C40A3B2048C9C4385
:101EB0000484048C02FA01F5ADB22C43048430BDD5
:101EC000828B4FF2FF331A408283828B4FF6FF736F
:101ED00003EA01231A4382837047F0B50C46154686
:101EE000002100220026078C4EF6FF7C07EA0C0733
:101EF0000784818B028C4FF6FF7707EA043640F6A1
:101F0000FF4739404FF6FF7707EA052739434FF679
:101F1000FF7707EA0337394345F6FF773A4046F43F
:101F200080573A4381830284F0BD828B4FF6F3736E
:101F30001A408283828B0A4382837047F0B50C4635
:101F40001546002100220026078C4FF6FF6C07EA99
:101F50000C070784818B028C4FF6FF7707EA042673
:101F60004FF60C7739404FF6FF7707EA03172F43F8
:101F700039434FF2FF573A4046F480773A43818322
:101F80000284F0BD028B4FF2FF331A400283028BB2
:101F90004FF6FF7303EA01231A4302837047F0B53B
:101FA0000C461546002100220026078C4FF6EF7CD8
:101FB00007EA0C070784018B028C4FF6FF7707EACC
:101FC000041640F6FF4739404FF6FF7707EA03371C
:101FD00039434FF6FF7703E0000001400004014061
:101FE00007EA052739434FF65F773A4046F0100776
:101FF0003A4301830284F0BD028B4FF6F3731A401B
:102000000283028B0A4302837047F0B50C461546E3
:1020100000210022068C4FF6FE773E400684018B9D
:10202000028C4FF60C7631407E1C06EA03162E43D6
:1020300031434FF6F576324044F0010632430183D6
:102040000284F0BD70B505460C46208850B923893E
:10205000A28861882846FFF7D8FFE1882846FFF765
:10206000CBFF25E0208804280AD12389A288618833
:102070002846FFF794FFE1882846FFF783FF17E023
:10208000208808280AD12389A28861882846FFF77A
:1020900055FFE1882846FFF748FF09E02389A28819
:1020A00061882846FFF719FFE1882846FFF708FFF7
:1020B00070BD002101804180012181800021C1800B
:1020C000018170472DE9F04105460C4600260127A5
:1020D000608808B9022600E00026A088012801D106
:1020E000022700E001272088A0B92389A2886188FF
:1020F0002846FFF78AFFE1882846FFF77DFF2389FE
:102100003A4631462846FFF74AFFE1882846FFF75E
:1021100039FF13E02389A28861882846FFF73FFF33
:10212000E1882846FFF72EFF23893A4631462846A4
:10213000FFF76BFFE1882846FFF75EFFBDE8F081FF
:102140000146486B70470146886B70470146C86B73
:1021500070470146086C70470A884B881A438B8881
:102160001A43CB881A430B891A434B891A438B892C
:102170001A43A0F8442070470021018041808180EB
:10218000C180018141818181704731B1B0F8442023
:1021900042F40042A0F8442005E0B0F84420C2F325
:1021A0000E02A0F84420704721B1828842F0040258
:1021B000828004E082884FF6FB731A408280704769
:1021C00021B1828842F00102828004E082884FF6C9
:1021D000FE731A40828070471AB183890B43838152
:1021E00002E083898B438381704781827047024676
:1021F0000020138A0B400BB1012000E00020704743
:10220000CA430282704730B50246002000230024F2
:10221000158A05EA0103958905EA010413B10CB199
:10222000012000E0002030BDCA430282704741EA2D
:102230000203A0F8483070471AB183890B438381A9
:1022400002E083898B438381704721B1828842F009
:102250000802828004E082884FF6F7731A40828079
:10226000704701894FF6F8721140018170470A46A4
:10227000002101894FF68F73194011430181704786
:1022800030B504460D4629462046FFF7F0FF208969
:1022900040F00700208130BD2DE9F04104460D4695
:1022A00016461F46602D06D13B4601223146204688
:1022B000FFF775FE05E03B46012231462046FFF759
:1022C000A4FE29462046FFF7D2FF208940F00700F0
:1022D0002081BDE8F08130B50C4600210189C9B2EA
:1022E0004FF6FF7505EA0325154325432943018170
:1022F00030BD2DE9F04105460E46174698460024AC
:1023000043463A4631462846FFF7E5FF2C894FF60B
:10231000F870044044F007044FF68F70044044F016
:1023200070042C81BDE8F081F0B504460D461646D8
:102330001F463B46324629462046FFF7CCFF208900
:1023400040F480402081F0BD82884FF68F731A40A0
:10235000828082880A438280704702894FF6F87330
:102360001A40028102890A430281704702894FF6AE
:102370007F731A40028102890A4302817047F0B5D7
:102380000C4615461E460021002200230189028BBF
:10239000038C4FF6F877394021434FF6FC473A401B
:1023A00040F201173A434FF6DD773B404FF6FF7797
:1023B00007EA06172F433B43018102830384F0BDE4
:1023C00021B1828842F08002828004E082884FF648
:1023D0007F731A4082807047A0F850107047000049
:1023E00010B50446FA48844208D101211020FFF7B5
:1023F00012F800211020FFF70EF857E0F54884424C
:1024000009D101214804FEF7F5FF00214FF4003007
:10241000FEF7F0FF4AE0F048844209D10121880428
:10242000FEF7E8FF00214FF48020FEF7E3FF3DE0D8
:10243000EA48844209D10121C804FEF7DBFF0021EC
:102440004FF40020FEF7D6FF30E0E548844209D182
:1024500001210805FEF7CEFF00214FF48010FEF7A2
:10246000C9FF23E0DF48844208D101212020FEF784
:10247000D2FF00212020FEF7CEFF17E0DA48844289
:1024800009D101218807FEF7B5FF00214FF08040F8
:10249000FEF7B0FF0AE0D548844207D1012140058C
:1024A000FEF7A8FF00216005FEF7A4FF10BD2DE98F
:1024B000FF4705460E460024A14600BFA046B0894E
:1024C00000B100BF2C8A24F44054F08804432C82CD
:1024D000AC8941F20C608443B0883189084371892A
:1024E00008430443AC81AC8A24F44074B0890443AB
:1024F000AC826846FEF70FFEB548854202D0B94867
:10250000854202D1DDF80C9001E0DDF80890A88941
:1025100000F4004040B109EBC90000EB091031683C
:102520004900B0FBF1F707E009EBC90000EB091027
:1025300031688900B0FBF1F76420B7FBF0F00401CB
:102540002009642101FB1078A88900F4004040B103
:10255000322000EBC800B0FBF1F000F007000443AC
:1025600008E0322000EB08106421B0FBF1F000F02D
:102570000F0004432C81BDE8FF874FF41651016022
:1025800000218180C18001810C2141810021818154
:10259000704710B502460020108A20F470600B8846
:1025A0004C8823438C882343CC88234318431082D0
:1025B00010BD0021018041808180C180704721B120
:1025C000828942F40052828104E082894DF6FF73D1
:1025D0001A4082817047028B02F47F420283028B91
:1025E0000A430283704721B1828942F4004282810A
:1025F00003E08289C2F30E028281704721B1828A90
:1026000042F40062828204E0828A4FF2FF731A4031
:1026100082827047C1F30802828070470146888831
:10262000C0F308007047028A4FF6F0731A40028226
:10263000028A0A430282704721B1828942F0020273
:10264000828104E082894FF6FD731A4082817047CF
:1026500082894FF2FF731A40828182890A43828104
:102660007047028A4FF6DF731A400282028A0A43D9
:102670000282704721B1028A42F48042028204E061
:10268000028A4BF6FF731A4002827047818941F03B
:1026900001018181704721B1828A42F00802828261
:1026A00004E0828A4FF6F7731A4082827047028BE9
:1026B000D2B20283028B42EA01220283704721B127
:1026C000828A42F02002828204E0828A4FF6DF731F
:1026D0001A408282704721B1828A42F010028282BF
:1026E00004E0828A4FF6EF731A4082827047828A32
:1026F0004FF6FB731A408282828A0A4382827047B5
:1027000021B1828A42F00202828204E0828A4FF67C
:10271000FD731A40828270471AB1838A0B43838209
:1027200002E0838A8B4383827047F0B5034600241E
:1027300000260025002040F66A17B94200D100BFEC
:102740001846C1F3421401F01F06012707FA06F5E7
:10275000012C01D10C3004E0022C01D1103000E03A
:1027600014301AB107682F43076002E00768AF43CF
:102770000760F0BD02460020B1F5007F00D100BF28
:1027800013880B400BB1012000E00020704701F4DA
:102790000072B2F5007F00D100BFCA4302807047CB
:1027A00070B50246002400230025002040F66A167A
:1027B000B14200D100BFC1F3421501F01F03012651
:1027C00006FA03F3012D13D19689334017E0000078
:1027D000001001400044004000480040004C004010
:1027E000005000400014014000780040007C004090
:1027F000022D02D1168A334001E0968A33400C1232
:10280000012606FA04F41688344013B10CB10120F5
:1028100000E0002070BD10B50022002340F66A14CD
:10282000A14200D100BF0A1201249440A3B2DC43AC
:10283000048010BD08B5684609F002F908BD08B566
:10284000684609F047F908BD38B504466A460821CC
:1028500020460FF02DFC38BD10B542480078012805
:1028600005D109F033F80FF0AFFE09F040F810BDC4
:1028700070B504466FF00400FEF708F82046E11733
:1028800004EB5171C1F3C701374A1170E11704EB32
:102890005171CD10354800683549B1FBF0F0454322
:1028A000324800684FF47A71B1FBF0F0314908808A
:1028B0004FF0E020006940F002004FF0E021086195
:1028C00008464561006940F00100086170BD2DE9CE
:1028D000F047074600264FF0E020D0F81490224839
:1028E000007807FB00F8FFF7A5FF4FF0E0208569AF
:1028F00011E04FF0E0208469AC420CD0AC4202D22F
:10290000281B064403E0A9EB04002844064425469E
:10291000464500D300E0ECE700BFFFF790FFBDE8BD
:10292000F08770B504460F480078A0B112480078CF
:1029300088B910480088844206DB0E48008894FB62
:10294000F0F52846FFF780FF0A48008894FBF0F175
:1029500000FB114084B24FF47A7104FB01F0FFF7E1
:10296000B6FF70BDF90600209C000020E89D01081C
:1029700040420F009E000020F80600201CB50121F7
:102980001020FEF799FC4020009001208DF80400F3
:1029900000208DF8060003208DF8050001208DF839
:1029A000070069460948FEF7E9F940210748FEF7A4
:1029B00063FA1CBD10B540210448FEF75BFA10BD58
:1029C00010B540210148FEF757FA10BD0010024033
:1029D00010B588B0044601210846FEF76DFC0121C0
:1029E0004804FEF7B2FC072202214F48FEF751FAD5
:1029F000072203214C48FEF74CFA0C2006900220D7
:102A00008DF81C008DF81D0000208DF81E0001209F
:102A10008DF81F0006A94448FEF7B0F90294002083
:102A2000ADF80C00ADF80E00ADF81000ADF81400D4
:102A30000C20ADF8120002A93C48FFF738FD002237
:102A400040F227713948FFF770FE012240F225510C
:102A50003648FFF76AFE40213448FFF798FE01210F
:102A60003248FFF7ACFD012240F225512F48FFF715
:102A70005CFE26208DF8040003208DF805008DF8FB
:102A8000060001208DF8070001A8FDF7B2FE08B08E
:102A900010BD1CB508F01AFF40F225512348FFF77E
:102AA0007FFE00283CD02148FFF7B8FDC4B2204883
:102AB000008800F4004098BB1D48008800F4804066
:102AC00060B10A2C03D000201949088020E0184882
:102AD000008840F400401649088019E00D2C06D10A
:102AE0001348008840F480401149088010E01048E5
:102AF0000088C0F30D000F490C540D480088401C9D
:102B00000B49088008460088C72801DD002008809E
:102B100001A8002301222146009007480EF0DAF8B0
:102B200008F0E5FE1CBD000000000240004400402B
:102B3000A0000020581300209852012000BF7047C9
:102B400000BF514A128802F04002002AF9D0C2B2F6
:102B50004D4B1B1D1A80704710B588B004460121EB
:102B60000820FEF7A9FB01218804FEF7EEFB0722EF
:102B700008214648FEF78DF9072209214348FEF750
:102B800088F94FF44070069002208DF81C008DF8F3
:102B90001D0000208DF81E0001208DF81F0006A9E1
:102BA0003A48FEF7EBF802940020ADF80C00ADF8BF
:102BB0000E00ADF81000ADF814000C20ADF81200B6
:102BC00002A93148FFF773FC01212F48FFF7F7FCFA
:102BD00040212D48FFF7DBFD012240F225512A4814
:102BE000FFF7A3FD27208DF8040003208DF80500D2
:102BF0008DF8060001208DF8070001A8FDF7F9FD0A
:102C000008B010BD10B508F061FE40F225511E4815
:102C1000FFF7C6FD10B31C48FFF700FDC4B21C4807
:102C2000008800F40040C8B91948008800F48040CA
:102C300060B10A2C03D000201549088020E0144818
:102C4000008840F400401249088019E00D2C06D19C
:102C50000F48008840F480400D49088010E00C487F
:102C60000088C0F30D000B490C5409480088401C33
:102C70000749088008460088C72801DD0020088031
:102C800008F035FE10BD000000480040000C024076
:102C9000A80000202014002000BF5649098801F038
:102CA00040010029F9D0C1B2524A121D118070476B
:102CB00010B588B0044601210420FEF7FDFA012179
:102CC0002020FEF753FB082206214B48FEF7E1F8CF
:102CD000082207214848FEF7DCF8C02006900220B1
:102CE0008DF81C008DF81D0000208DF81E000120BD
:102CF0008DF81F0006A94048FEF740F80294002016
:102D0000ADF80C00ADF80E00ADF81000ADF81400F1
:102D10000C20ADF8120002A93648FFF7C8FB0022CC
:102D200040F227713348FFF700FD012240F22551A0
:102D30003048FFF7FAFC40212E48FFF728FD01211B
:102D40002C48FFF73CFC012240F225512948FFF7AF
:102D5000ECFC47208DF8040003208DF805008DF869
:102D6000060001208DF8070001A8FDF742FD08B01C
:102D700010BD70B50024002508F0A8FD40F22551D3
:102D80001C48FFF70DFD90B31A48FFF747FCC6B289
:102D90001A480088C0F30D0019490E5417480088DE
:102DA000401C164908800846008809281FD114488D
:102DB0000078592818D112484078592814D100BFFA
:102DC00004E00F48005D2844C5B2641C082CF8D309
:102DD0000B48007AA84207D1094880780849C97889
:102DE00040EA01200749088000200449088008F0D3
:102DF0007EFD70BD0014014000080240AC000020C0
:102E0000E8140020AA00002000BF554A128802F0F2
:102E10004002002AF9D0C2B2514B9A80704710B5D7
:102E200088B0044601210846FEF746FA0121102029
:102E3000FEF79CFA072209214A48FEF72AF80722E2
:102E40000A214848FEF725F84FF4C060069002209A
:102E50008DF81C008DF81D0000208DF81E0001204B
:102E60008DF81F0006A93F48FDF788FF0294002057
:102E7000ADF80C00ADF80E00ADF81000ADF8140080
:102E80000C20ADF8120002A93548FFF710FB012114
:102E90003348FFF794FB40213148FFF778FC0122CB
:102EA00040F225512E48FFF740FC25208DF8040004
:102EB00003208DF805008DF8060001208DF807002D
:102EC00001A8FDF796FC08B010BD1CB508F0FEFC8B
:102ED00040F225512248FFF763FC00283CD02048EF
:102EE000FFF79CFBC4B22048008800F4004098BB68
:102EF0001D48008800F4804060B10A2C03D00020F7
:102F00001949088020E01848008840F4004016491C
:102F1000088019E00D2C06D11348008840F4804049
:102F20001149088010E010480088C0F30D000F49D7
:102F30000C540D480088401C0B4908800846008846
:102F4000C72801DD0020088001A8002301222146B6
:102F5000009007480DF0BEFE08F0C9FC1CBD000043
:102F60000010014000000240AE000020B01500201B
:102F7000C88E01201CB501210220FEF79DF9C0205A
:102F8000009001208DF8040000208DF80600032039
:102F90008DF8050001208DF8070069468848FDF787
:102FA000EDFE0120874908608749C1F89C021CBDDD
:102FB00010B58348006820F4404081490860084605
:102FC000006840F48040086001207E49091D0860C7
:102FD0007D49C1F898020420FFF779FC0020794967
:102FE000091D08600420FFF772FC00207649C1F833
:102FF000980210BD10B57248006820F44040704936
:1030000008600846006840F48040086000206D4970
:1030100008606D49C1F89C020420FFF758FC0120AC
:10302000684908606849C1F89C020420FFF74FFC1A
:1030300010BD10B500246248006820F4404060498B
:10304000086008460068086001205E49091D0860A4
:10305000FFF73DFC01205C49C1F89802FFF737FCFF
:1030600007E0601CC4B2FA2C03DDFFF7C3FF0120A8
:1030700010BD54487C3800680028F2D151490860DE
:1030800000BFF5E710B500204E4908604C480068C5
:1030900020F440404A4908600846006840F48040F7
:1030A000086000204849C1F89C020220FFF70FFC8D
:1030B0000120444908600220FFF709FC0020424932
:1030C000C1F8980210BD10B500203E4908603C4888
:1030D000006820F440403A4908600846006840F41F
:1030E0008040086001203849C1F89C020220FFF7A7
:1030F000EEFB0120334908600220FFF7E8FB0020C7
:103100003149C1F8980210BD70B504462C480068DA
:1031100020F440402A4908600846006840F4804096
:103120000860002027490860002517E0E0092549CC
:10313000091D08606006040E0220FFF7C8FB01208D
:103140002149C1F898020220FFF7C1FB00201D4968
:1031500008600220FFF7BBFB681CC5B2082DE5DB49
:1031600070BD70B5054600241548006820F4404045
:1031700013490860084600680860002616E0002031
:10318000104908600220FFF7A2FB01200E49C1F898
:1031900098026006040E0B487C38006808B1601C79
:1031A000C4B20120FFF793FB701CC6B2082EE6DB09
:1031B00015B9FFF788FF01E0FFF764FF204670BDF7
:1031C00000040240988240420080404200BF011E3D
:1031D000A0F10100FBD170471CB501210220FEF7D0
:1031E0006BF84FF44060009001208DF8040000203F
:1031F0008DF8060003208DF8050001208DF80700EA
:1032000069468948FDF7BAFD012088490860884968
:10321000C1F8AC021CBD10B58348006820F4400022
:10322000814908600846006840F480000860012079
:103230007E49091D08607E49C1F8A8020420FFF7F5
:1032400046FB00207949091D08600420FFF73FFB79
:1032500000207749C1F8A80210BD10B57248006877
:1032600020F44000704908600846006840F480007F
:10327000086000206D4908606D49C1F8AC02042067
:10328000FFF725FB0120694908606949C1F8AC02D4
:103290000420FFF71CFB10BD10B500246248006835
:1032A00020F440006049086008460068086001207A
:1032B0005E49091D0860FFF70AFB01205C49C1F85F
:1032C000A802FFF704FB07E0601CC4B2FA2C03DD80
:1032D000FFF7C3FF012010BD54487C380068002868
:1032E000F2D15249086000BFF5E710B500204F4900
:1032F00008604D48006820F440004B4908600846CB
:10330000006840F48000086000204949C1F8AC0220
:103310000220FFF7DCFA0120444908600220FFF791
:10332000D6FA00204249C1F8A80210BD10B500200D
:103330003E4908603C48006820F440003A49086073
:103340000846006840F48000086001203849C1F850
:10335000AC020220FFF7BBFA0120344908600220CA
:10336000FFF7B5FA00203249C1F8A80210BD70B5C8
:1033700004462D48006820F440002B4908600846A8
:10338000006840F48000086000202849086000259B
:1033900017E0E0092549091D08606006040E0220B7
:1033A000FFF795FA01202249C1F8A8020220FFF791
:1033B0008EFA00201D4908600220FFF788FA681C79
:1033C000C5B2082DE5DB70BD70B505460024164872
:1033D000006820F44000144908600846006808604E
:1033E000002616E00020114908600220FFF76FFA5E
:1033F00001200F49C1F8A8026006040E0B487C3872
:10340000006808B1601CC4B20120FFF760FA701CAC
:10341000C6B2082EE6DB15B9FFF788FF01E0FFF71B
:1034200064FF204670BD000000040240A8824042B4
:10343000008040421CB501210220FDF73DFF4FF402
:103440004070009001208DF8040000208DF80600E7
:1034500003208DF8050001208DF807006946894892
:10346000FDF78CFC0120884908608849C1F8A40256
:103470001CBD10B58348006820F4402081490860D5
:103480000846006840F48020086001207E49091D3C
:1034900008607E49C1F8A0020420FFF718FA002056
:1034A0007949091D08600420FFF711FA00207749C7
:1034B000C1F8A00210BD10B57248006820F4402089
:1034C000704908600846006840F4802008600020C9
:1034D0006D4908606D49C1F8A4020420FFF7F7F9AF
:1034E0000120694908606949C1F8A4020420FFF776
:1034F000EEF910BD10B500246248006820F44020A9
:103500006049086008460068086001205E49091D9E
:103510000860FFF7DCF901205C49C1F8A002FFF761
:10352000D6F907E0601CC4B2FA2C03DDFFF7C3FF35
:10353000012010BD54487C3800680028F2D152495F
:10354000086000BFF5E710B500204F4908604D48FE
:10355000006820F440204B4908600846006840F4A9
:103560008020086000204949C1F8A4020220FFF72A
:10357000AEF90120444908600220FFF7A8F90020B5
:103580004249C1F8A00210BD10B500203E490860B4
:103590003C48006820F440203A490860084600682A
:1035A00040F48020086001203849C1F8A4020220BC
:1035B000FFF78DF90120344908600220FFF787F9F1
:1035C00000203249C1F8A00210BD70B504462D4854
:1035D000006820F440202B4908600846006840F449
:1035E00080200860002028490860002517E0E009D5
:1035F0002549091D08606006040E0220FFF767F9DF
:1036000001202249C1F8A0020220FFF760F9002042
:103610001D4908600220FFF75AF9681CC5B2082D41
:10362000E5DB70BD70B5054600241648006820F43F
:10363000402014490860084600680860002616E02B
:103640000020114908600220FFF741F901200F49CD
:10365000C1F8A0026006040E0B487C38006808B16F
:10366000601CC4B20120FFF732F9701CC6B2082EEC
:10367000E6DB15B9FFF788FF01E0FFF764FF20469E
:1036800070BD000000040240A08240420080404221
:103690001CB501210846FDF70FFE03200090012014
:1036A0008DF8040000208DF8060003208DF8050039
:1036B00001208DF8070069468848FDF75FFB01206F
:1036C000874908608749C1F884021CBD10B583484A
:1036D000006820F00C00814908600846006840F04E
:1036E0000400086001207E49091D08607D49C1F879
:1036F00080020420FFF7EBF800207949091D0860DB
:103700000420FFF7E4F800207649C1F8800210BDDC
:1037100010B57248006820F00C0070490860084637
:10372000006840F00400086000206D4908606D49A1
:10373000C1F884020420FFF7CAF801206849086034
:103740006849C1F884020420FFF7C1F810BD10B524
:1037500000246248006820F00C00604908600846B8
:103760000068086001205E49091D0860FFF7AFF896
:1037700001205C49C1F88002FFF7A9F807E0601C4E
:10378000C4B2FA2C03DDFFF7C3FF012010BD54487B
:103790007C3800680028F2D15149086000BFF5E785
:1037A00010B500204E4908604C48006820F00C001D
:1037B0004A4908600846006840F00400086000209C
:1037C0004849C1F884020220FFF781F801204449EA
:1037D00008600220FFF77BF800204249C1F8800210
:1037E00010BD10B500203E4908603C48006820F03C
:1037F0000C003A4908600846006840F00400086080
:1038000001203849C1F884020220FFF760F8012046
:10381000334908600220FFF75AF800203149C1F807
:10382000800210BD70B504462C48006820F00C00E2
:103830002A4908600846006840F00400086000203B
:1038400027490860002517E0E0092549091D08609F
:103850006006040E0220FFF73AF801202149C1F862
:1038600080020220FFF733F800201D490860022083
:10387000FFF72DF8681CC5B2082DE5DB70BD70B5EB
:10388000054600241548006820F00C001349086024
:10389000084600680860002616E00020104908600D
:1038A0000220FFF714F801200E49C1F880026006DB
:1038B000040E0B487C38006808B1601CC4B20120BB
:1038C000FFF705F8701CC6B2082EE6DB15B9FFF746
:1038D00088FF01E0FFF764FF204670BD0000024052
:1038E000800240420000404230B58BB004460D4695
:1038F000002009900A90069007900890142101A8D2
:1039000013F087FB01210820FDF7D6FC4FF470402F
:10391000099002208DF8280003208DF8290000204E
:103920008DF82A008DF82B0009A95048FDF726FADA
:1039300002220C214D48FDF7ACFA02220D214B4822
:10394000FDF7A7FA02220E214848FDF7A2FA02224B
:103950000F214648FDF79DFA01210420FDF7F5FCF3
:10396000681E80B2ADF818000020ADF81A008DF87E
:103970002200601E07900020ADF8200006A93C48F8
:10398000FDF789FF6020ADF804000120ADF80600C6
:103990000020ADF8100001A93548FEF711F801A983
:1039A0003348FEF746F801A93148FEF78FF801A920
:1039B0002F48FEF7F1F808212D48FEF78EF908216F
:1039C0002B48FEF793F908212948FEF79CF90821B6
:1039D0002748FEF7A1F901212548FDF7C7FF01217E
:1039E0002348FDF7E1FF01212148FEF7CEFB0BB094
:1039F00030BD70B504460D4635B1012D09D0022DFC
:103A00000CD0032D14D10EE021461948FEF731F9F0
:103A10000FE021461648FEF72EF90AE02146144829
:103A2000FEF72BF905E021461148FEF728F900E0E2
:103A300000BF00BF70BD10B5542140F6D630FFF76F
:103A400053FF002140F20E60FFF7D3FF012140F247
:103A50000E60FFF7CEFF022140F2AA50FFF7C9FF28
:103A6000032140F2DC50FFF7C4FF10BD000C024000
:103A70000008004070B505460C46FFF799FA902003
:103A8000FFF742FBFFF7D5FA00B170BD2846FFF7FC
:103A90003BFBFFF7CEFA00B1F7E72012FFF734FB4C
:103AA000FFF7C7FA00B1F0E7E0B2FFF72DFBFFF731
:103AB000C0FA00B1E9E7FFF79DFA00BFE5E738B5C6
:103AC0000546FFF775FA9020FFF71EFB1420FEF75E
:103AD000FEFEFFF7AEFA08B1002038BD0020FFF768
:103AE00013FBFFF7A6FA08B10020F6E7FFF782FA0A
:103AF000FFF75EFA9120FFF707FBFFF79AFA08B18C
:103B00000020EAE70120FFF72CFB8DF800000120E0
:103B1000FFF727FB8DF80100FFF76CFA9DF8011005
:103B20009DF8000001EB002084B22046D5E770B577
:103B30000546032D01DD002070BD40F2831444F4DE
:103B4000007435B1012D07D0022D08D0032D0CD102
:103B500008E044F4804408E044F4A04405E044F460
:103B6000C04402E044F4E04400BF00BF44F4004419
:103B700021460120FFF77EFF0820FEF7D2FE00203D
:103B8000FFF79DFFD8E710B5FFF7F4F910BD10B5AA
:103B900004462046FFF7CBFF10BD00000020FE4981
:103BA0000860091D0860091D0860091D0860FA49C0
:103BB00024310860091D0860091D0860F748F649AE
:103BC000383108600020091D086070470146002058
:103BD000012900D011B9F24B197000E0262070477E
:103BE0000146ED4A121D106820F0FF0008431060E6
:103BF000704770B5044606E0E7483430056805F0C4
:103C0000450000B100E0F7E700BF0420FDF770FDBC
:103C100020B10420FDF777FD032070BD0120FDF7E2
:103C200067FD20B10120FDF76EFD0120F5E7DA48C0
:103C300010300068A04201D01020EEE740F2FF50A3
:103C4000FDF761FDD4481430006808210840C0B277
:103C5000E3E72DE9FC4107460D460026002400203D
:103C6000009001900820CF49086010204860402053
:103C700088600020C8604FF4806008610846FDF746
:103C8000A4FC1020FFF7B5FF044614B12046BDE8A0
:103C9000FC81C54800880004C2490860372048609C
:103CA000402088600020C8604FF4806008610846AA
:103CB000FDF78BFC3720FFF79CFF04460CB1204634
:103CC000E5E74FF0FF30B949086008204860302030
:103CD00088600220C8600020086101204861084611
:103CE000FDF79FFC0020AF4908603320486040206A
:103CF00088600020C8604FF4806008610846FDF7C6
:103D000064FC3320FFF775FF04460CB12046BEE784
:103D10000DE04FF40010FDF7EBFC40B19E48803001
:103D200000684DF82600761C022E00D307E09A4862
:103D30003430006840F22A6108400028E9D000BF12
:103D40000820FDF7D5FC20B10820FDF7DCFC04209D
:103D50009DE70220FDF7CCFC20B10220FDF7D3FC4B
:103D6000022094E72020FDF7C3FC20B12020FDF7BE
:103D7000CAFC06208BE74FF40070FDF7B9FC28B1B0
:103D80004FF40070FDF7BFFC072080E740F2FF50C2
:103D9000FDF7B9FC00980006009901F47F4140EA64
:103DA0000120009901F47F0140EA1120009940EAC6
:103DB0001160686001980006019901F47F4140EAB2
:103DC0000120019901F47F0140EA1120019940EAA4
:103DD0001160286020465AE77CB505460024002083
:103DE0000090019000260DB1022600E000266A48EE
:103DF0001430006800F0007008B10E207CBD6A49E4
:103E0000098888B26946FFF724FF04460CB12046B2
:103E1000F4E7019800F4802060B363480088000450
:103E20006049086037204860402088600020C860F2
:103E30004FF4806008610846FDF7C7FB3720FFF7A5
:103E4000D8FE04460CB12046D8E756480660062046
:103E500054494860402088600020C8604FF480606A
:103E600008610846FDF7B1FB0620FFF7C2FE0446D5
:103E70002046C3E72520C1E770B5044600254C481D
:103E80000078032802D12725284670BD48480078CD
:103E900038B147480078012803D045480078022807
:103EA00019D1B4F5805F02D127252846EDE7E0B2AD
:103EB000FFF792FF054675B93748001D006820F4EA
:103EC000C0503549091D0860084600682043086055
:103ED0000846006808602846D7E710B50446314810
:103EE000046007202F494860402088600020C86097
:103EF0004FF4806008610846FDF767FB0720FFF775
:103F000078FE10BDF0B5014600200022284B1B783A
:103F100081F85630244B1B88A1F85430254B1B6880
:103F20001A0E93090B70C2F383034B7002F0030364
:103F30008B70204B1B68C3F30742CA701D4B1B8854
:103F4000C3F307220A711B4B1A784A715B681A0E79
:103F50001301CB80174B5B68C3F30742CB8843EA5E
:103F60001213CB8002F00F030B72124B9B88C3F32A
:103F70000722D3094B72C2F380138B72C2F3401332
:103F8000CB72C2F300130B7300234B73084B1B78E7
:103F9000C3B1074B1B780FE0002C0140FF07C000A6
:103FA000B800002090160020B4000020A4160020C5
:103FB000B0000020BC160020012B03D0FE4B1B7864
:103FC000032B4FD193071B0D0B61FC4B1A790B6927
:103FD00043EA82030B61F94B9B681A0E0B6943EAB3
:103FE00092130B61C2F3C2030B7502F007034B750A
:103FF000F24B9B68C3F3074253098B75C2F38203EC
:10400000CB7593075B0F0B76EC4B1B89C3F3072231
:104010000B7E43EAD2130B760B695B1C0024C1E9CB
:1040200012340B7E9B1C012404FA03F3DC17D1E944
:104030001256A5FB037C06FB03C305FB0433C1E951
:1040400012730C7A0123A3400B650024D1E9126599
:104050000B6DA6FB037C05FB03C306FB0433C1E920
:1040600012732EE0D44B1B78022B2AD1D34B1A7932
:1040700093069B0A0B61D14B9B681A0E0B6943EAAE
:1040800002230B61CD4B9B68C3F307420B691343BB
:104090000B61CA4B1B89C3F307220B695B1C4FF4EE
:1040A0000074A3FB04464FF480630025A4FB037C4B
:1040B00006FB03C304FB0533C1E912734FF400731D
:1040C0000B65C2F3801301F8193F93065B0E4B702A
:1040D000BA4B1A7A4B7843EAD2134B7002F07F0343
:1040E0008B70B64BDB681A0ED309CB70C2F3411349
:1040F0000B71C2F382034B7193071B0F8B71AF4B94
:10410000DB68C3F307428B7943EA92138B71C2F3E6
:104110004013CB7100230B7202F001034B72A74BCB
:104120009B89C3F30722D3098B72C2F38013CB722E
:10413000C2F340130B73C2F300134B73C2F381033A
:104140008B7302F00303CB739C4B1A7B53080B74E5
:1041500001234B749A4B1B681A0ECA741939984B79
:104160001B68C3F307421402CC85954B1B88C3F32D
:104170000722CB8D1343CB85914B1A7814060C6321
:104180005B681A0E0B6B43EA02440C638C4B5B6852
:10419000C3F307420B6B43EA02240C63884B9B88F2
:1041A000C3F307220B6B13430B63854B1A7934233C
:1041B0005A54834B9B681A0E35235A54804B9B6884
:1041C000C3F3074214068C637D4B1B89C3F307229C
:1041D0008B6B43EA02448C63794B1A7A8B6B43EA0C
:1041E00002248C63764BDB681A0E8B6B13438B6354
:1041F000734BDB68C3F307423C235B5C43EA121456
:104200003C235C5413071C0DCC876D4B9B89C3F377
:104210000722CB8F1343CB87694B1A7B540840236B
:104220005C54012441235C54F0BD70B500264FF46A
:10423000803505E06348046804F0450000B103E000
:10424000281EA5F10105F5D100BF15B104F0040049
:1042500028B103260420FDF756FA304670BD012030
:10426000FDF746FA18B101260120FDF74CFA40F29D
:10427000FF50FDF748FA3046F0E72DE9F0410546DA
:104280000E464FF0000805E04E48076807F045006D
:1042900000B100E0F8E700BF0420FDF729FA28B1DB
:1042A0000420FDF730FA0320BDE8F0810120FDF77E
:1042B0001FFA20B10120FDF726FA0120F4E741485A
:1042C00024380068A84201D01020EDE740F2FF50EA
:1042D000FDF719FA3B482038046804F4604018B927
:1042E000200C30804046DFE704F4005008B1132072
:1042F000DAE704F4804008B11020D5E704F4004068
:1043000008B10F20D0E74046CEE738B500240120A1
:104310000090FDF754F910B92524204638BD2648F1
:104320000078042825D00020274908600220486032
:10433000C02088600020C8604FF480600861084693
:10434000FDF743F9FFF771FF04460CB12046E5E79E
:104350001C48203800681A4908601A481C38006850
:104360004860184818380068886016481438006893
:10437000C8601148007858B10F480078012807D06C
:104380000D480078062803D00B480078022821D178
:1043900000200D490860032048604020886000200C
:1043A000C8604FF4806008610846FDF70EF9694661
:1043B0000320FFF762FF09E0B0000020BC160020D8
:1043C000CC160020342C01409016002004460CB17D
:1043D0002046A3E7FE480078032816D1BDF8000068
:1043E0000004FC49086003204860402088600020E9
:1043F000C8604FF4806008610846FDF7E6F8FFF7F3
:1044000014FF04460CB1204688E7F14800780428E0
:104410002AD0BDF80000F0490860BDF80000000493
:10442000EC49086009204860C02088600020C8600E
:104430004FF4806008610846FDF7C7F8FFF7F5FE06
:1044400004460CB1204669E7E4480068E449086086
:10445000E248001D00684860E04808300068886055
:10446000DE480C300068C860002057E710B506E051
:10447000DA482030046804F0450000B100E0F7E7B6
:1044800000BF0420FDF734F920B10420FDF73BF90B
:10449000032010BD40F2FF50FDF735F90020F8E78A
:1044A00070B500264FF4803506E0CC482030046813
:1044B00004F0450000B103E0281EA5F10105F4D188
:1044C00000BF15B104F0040028B103260420FDF755
:1044D0001AF9304670BD04F0400018B100264020A3
:1044E000FDF711F93046F5E770B500254FF480343B
:1044F00004E08020FDF7FCF800B103E0201EA4F1E9
:104500000104F6D100BF0CB9032070BD40F2FF508A
:10451000FDF7F9F82846F8E72DE9F04700270024D1
:1045200000260025A046A1467620AE490875002049
:10453000086048608860C86008610846FDF71BF89D
:104540000320FDF738F8A5481038006840F4807063
:10455000A2491039086000BF12E000209D490860A0
:1045600048608860C8604FF4806008610846FDF7C5
:104570002CF8FFF7B9FF044604B903E0781CC7B272
:104580004A2FEADB00BF14B12046BDE8F0874FF4A4
:10459000D57090490860082048604020886000205D
:1045A000C8604FF4806008610846FDF70EF8FFF719
:1045B00077FF044624B90120854908704FF08049EF
:1045C000002084490860372048604020886000202F
:1045D000C8604FF4806008610846FCF7F6FF37209A
:1045E000FFF707FB0446002C4BD134E0002079494B
:1045F000086037204860402088600020C8604FF481
:10460000806008610846FCF7E0FF3720FFF7F1FA09
:1046100004460CB12046B8E7734849EA00006D49EA
:10462000086029204860402088600020C8604FF45E
:10463000806008610846FCF7C8FFFFF717FF0446D3
:104640000CB12046A1E765480668012080EAD670D3
:1046500080F001086D1CB8F1000F03D14FF6FF7018
:104660008542C3D34FF6FF70854202D31B242046F8
:104670008BE706F08040061E32D0022054490870B5
:104680002EE01CE059485349086001204860402052
:1046900088600020C8604FF4806008610846FCF71D
:1046A00094FFFFF7E3FE04460CB120466DE74B484C
:1046B0000668012080EAD67080F001086D1CB8F110
:1046C000000F03D14FF6FF708542DBD34FF6FF702A
:1046D000854202D31B24204657E703203C4908703B
:1046E000204652E73EB50024002501214048FCF752
:1046F000E3FD0121C802FCF739FE0121C802FCF7E5
:104700008AFE4FF4F850019002208DF808008DF8D1
:10471000090000208DF80A0001208DF80B0001A986
:104720003448FCF72BFB0420019001A93248FCF728
:1047300025FB0C2208212F48FCF7ABFB0C2209219A
:104740002C48FCF7A6FB0C220A212A48FCF7A1FB07
:104750000C220B212748FCF79CFB0C221146254814
:10476000FCF797FB0C2202212348FCF792FB002167
:104770004FF40060FCF74FFEFFF710FA31208DF880
:10478000000000208DF801008DF8020001208DF856
:1047900003006846FCF72DF8FFF7BEFE044614B987
:1047A000FFF7B3FD04461CB91448FFF7ABFB044602
:1047B00034B91249B1F854100804FFF78EFB0446CF
:1047C00024B94FF40060FFF757FB0446E4B117E04B
:1047D000B000002090160020B4000020142C0140EE
:1047E000BC16002078160020000010800080FF809A
:1047F0000C00400000080240000C0240E0160020BF
:10480000FE480078032812D1FD4890F8560020B1E8
:10481000FB4890F85600012801D1022500E0002550
:104820002846FFF7DDF90020FFF7D0F904462046BF
:104830003EBD10B50020FCF7BEFE002010BD70B5D7
:1048400090B004460E46154600BFEE48FCF765F9E9
:104850000028FAD1EB48FCF737F84FF000600190E0
:10486000E9480290039404950020059006904FF4C7
:1048700080600790800008908000099000200A90D6
:104880004FF440300B9004200C9003200D904FF417
:1048900000000E9080100F9001A9DA48FCF7B6F8DE
:1048A0002021D848FCF702F90121D648FCF7E8F8A6
:1048B00010B070BD0146002002E04910421CD0B289
:1048C0000129FAD170472DE9F84F814617469846DD
:1048D0000A9C4FF0000AD3464D464FF0FF36B9F11F
:1048E000000F02D12620BDE8F88F0020C6495439B8
:1048F0000860C2480078022805D10402780A40EA1C
:10490000C8574FEA68280020C04988604860401EA8
:104910000860012048610020C86008610846FCF773
:1049200080FEB9486C38006800F0007008B10E20B5
:10493000D9E7002C21DDB4F5006F1EDC601E20409D
:10494000D8B92046FFF7B6FF0090B14804601020A8
:10495000AF494860402088600020C8604FF4806004
:1049600008610846FCF731FE1020FFF742F9824645
:10497000BAF1000F03D05046B5E72620B3E7009800
:104980000001A2498860084644604FF0FF3008608B
:10499000012048610220C860002008610846FCF739
:1049A00040FE9B480760112099494860402088607C
:1049B0000020C8604FF4806008610846FCF705FEDF
:1049C0001120FFF716F98246BAF1000F01D05046C8
:1049D00089E79048007800285AD1FBF762FC17E07D
:1049E0004FF40040FCF784FE70B14FF0000B05E07F
:1049F0008548006845F82B000BF1010BBBF1080F4F
:104A0000F6D32035844E03E00EB904206BE7761E02
:104A10007D484C38006840F22A6108400028DFD009
:104A20000820FCF765FE20B10820FCF76CFE04208E
:104A300059E70220FCF75CFE20B10220FCF763FE80
:104A4000022050E72020FCF753FE20B12020FCF785
:104A50005AFE062047E74FF40070FCF749FE28B1E4
:104A60004FF40070FCF74FFE07203CE703E0664878
:104A7000006828602D1D4FF40010FCF739FE002857
:104A8000F5D1FBF710FC40F2FF50FCF73CFE39E09B
:104A900060480078012835D10020604908706049DD
:104AA00008706049087058484438006840F22A315C
:104AB000084355494439086053485438006840F069
:104AC0000800514954390860002221464846FFF742
:104AD000B6FE00E0761E4B485838006800F00060D3
:104AE00038B95048007820B94C48007808B9002EF1
:104AF000F0D10EB90420F6E64848007810B14748D6
:104B000090F800A05046EEE62DE9FF5F1746984664
:104B1000DDE90E464FF00009CA464FF0FF35424925
:104B200000980860002038495439086033480078FC
:104B3000022805D10402780A40EAC8574FEA6828DB
:104B40000020324988604860401E086001204861AA
:104B50000020C86008610846FCF763FD2A486C38ED
:104B6000006800F0007018B10E2004B0BDE8F09F9E
:104B7000002C21DDB4F5006F1EDC601E2040D8B98A
:104B80002046FFF797FE8346214804601020204905
:104B90004860402088600020C8604FF48060086151
:104BA0000846FCF712FD1020FFF723F88146B9F103
:104BB000000F03D04846D8E72620D6E7012E6ED94D
:104BC00006FB04F0B0F1007F01D32620CDE74FEAC9
:104BD0000B100E49886006FB04F048604FF0FF3070
:104BE0000860012048610220C86000200861084672
:104BF000FCF717FD06480760122017E0B000002000
:104C0000E016002058640240802C0140A4160020C9
:104C100090160020B8000020FFFF7F00BA0000209F
:104C2000B9000020BB000020BC000020F94948600A
:104C3000402088600020C8604FF48060086108460A
:104C4000FCF7C3FC1220FEF7D4FF8146B9F1000F38
:104C500001D0484689E7F048007800287ED1FBF76C
:104C600020FB1EE04FF40040FCF742FDA0B14FF0E6
:104C7000000A07E0E9480068E949096841F82A00A4
:104C80000AF1010ABAF1080FF4D3E54800682030B0
:104C9000E3490860E34D04E015B9042065E7AEE0A0
:104CA0006D1EDE484C38006840F22A31084000286A
:104CB000D8D00820FCF71CFD20B10820FCF723FD0C
:104CC000042052E70220FCF713FD20B10220FCF77C
:104CD0001AFD022049E72020FCF70AFD20B1202020
:104CE000FCF711FD062040E74FF40070FCF700FDD3
:104CF00028B14FF40070FCF706FD072035E709E006
:104D0000C6480068C64909680860C5480068001DB3
:104D1000C34908604FF40010FCF7EAFC0028EFD10B
:104D20004FF48070FCF7E4FC20B3BF48007838B142
:104D3000BD480078012803D0BB480078022819D16B
:104D40000020B44908600C204860402088600020A2
:104D5000C8604FF480600861084600E011E0FCF78D
:104D600034FC0C20FEF745FF8146B9F1000F01D05D
:104D70004846FAE6FBF797FA40F2FF50FCF7C3FC0F
:104D80003DE0A5480078012839D10020A7490870E6
:104D90000120A74908700020A64908709F484438A0
:104DA000006840F22A3108439C49443908609B4816
:104DB0005438006840F0080098495439086006FBF0
:104DC00004F100220098FFF73AFD00E06D1E9A48BA
:104DD000006800F0006008B9002DF7D10DB904207B
:104DE000C3E600BF9348007818B9904800780028BF
:104DF000F8D08E48007810B18C4890F80090484662
:104E0000B3E61CB504460020019000908B48008852
:104E10000004804908600D20486040208860002020
:104E2000C8604FF4806008610846FCF7CEFB7B4801
:104E30004C380068009003E078484C3800680090D7
:104E4000009800F045000028F6D00120FCF750FC47
:104E500020B10120FCF757FC01201CBD0420FCF709
:104E600047FC20B10420FCF74EFC0320F5E76B481B
:104E7000703800680D2801D01020EEE740F2FF5096
:104E8000FCF741FC65486C38006801900198C0F35C
:104E9000432020700020E0E72DE9FF5F86B0174631
:104EA0009846149D00260020059004900024814619
:104EB0000390824602900195DDF818B0DDF818B035
:104EC000BBF1000F03D126200AB0BDE8F09F0020FF
:104ED0005249543908605A4988604860401E086049
:104EE000012048610020C86008610846FCF799FB72
:104EF0004A486C38006800F0007008B10E20E3E703
:104F000049480078022805D10502780A40EAC857C6
:104F10004FEA6828002D1FDDB5F5006F1CDC681E08
:104F20002840C8B92846FFF7C5FC059039480560F8
:104F3000102038494860402088600020C8604FF445
:104F4000806008610846FCF740FB1020FEF751FE28
:104F500006461EB13046B7E72620B5E73748008839
:104F600000042C4908600D20486040208860002023
:104F7000C8604FF4806008610846FCF726FB0D20EE
:104F8000FEF737FE06460EB130469DE723486C38E3
:104F9000006803904FF0FF341CE0641E274800882F
:104FA00000041C4908600D204860402088600020F3
:104FB000C8604FF4806008610846FCF706FB0D20CE
:104FC000FEF717FE06460EB130467DE713486C38F3
:104FD00000680390039800F4807008B9002CDCD1BD
:104FE0000CB9292070E70B48076018200949486070
:104FF000402088600020C8604FF480600861084647
:10500000FCF7E3FA1820FEF7F4FD0646D6B1304669
:105010005AE7000090160020B8000020802C0140C4
:10502000BC000020FFFF7F00B0000020BA0000207D
:10503000B9000020BB00002000640240B400002042
:10504000A41600200020F849087005980001F749CF
:105050008860084645604FF0FF30086001204861D5
:105060000020C86008610846FCF7DBFA4FF0FF3407
:10507000EF48007800287CD1FBF713F943E04FF4A8
:105080008040FCF735FBC8B30198A0EB090020284D
:1050900021D20198A0EB090000F0030020B901988B
:1050A000A0EB0900800804E00198A0EB090080084B
:1050B000401C02904FF0000A09E0DE49DBF80000D6
:1050C00008600AF1010A0BF1040B09F104090298C6
:1050D0008245F2D30FE04FF0000A05E05BF82A00AA
:1050E000D44908600AF1010ABAF1080FF6D30BF1AE
:1050F000200B09F120096FF0404404E0FFE70CB9F0
:105100000420E1E6641ECB484C38006840F21A6186
:1051100008400028B3D00820FCF7EAFA20B10820A4
:10512000FCF7F1FA0420CFE60220FCF7E1FA20B107
:105130000220FCF7E8FA0220C6E61020FCF7D8FAB5
:1051400020B11020FCF7DFFA0520BDE64FF4007017
:10515000FCF7CEFA30B14FF40070FCF7D4FA072018
:10516000B2E606E0FBF79FF840F2FF50FCF7CBFAFF
:1051700043E0AF48007801283FD10020AE490870D5
:10518000A9490870AD490870AA484438006840F23F
:105190001A310843A7494439086040222946069835
:1051A000FFF74DFBA3485438006840F00800A149C0
:1051B0005439086000E0641EA148006800F00060F7
:1051C00008B9002CF7D11CB9FFF78CFA04207BE654
:1051D0004FF0FF3400E0641E9848007820B99648EC
:1051E000007808B9002CF6D10CB904206CE692487E
:1051F000007810B19048007866E640F2FF50FCF766
:1052000082FA04A8FFF7FDFD064603E004A8FFF7B5
:10521000F8FD06463EB99DF810000728F6D09DF827
:1052200010000628F2D030464EE62DE9FF5F84B02C
:10523000DDE91247002600200390029000258046F9
:105240008146019007FB04FBDDF810A0DDF810A0FB
:10525000BAF1000F03D1262008B0BDE8F09F00206E
:10526000744954390860714988604860401E08607C
:10527000012048610020C86008610846FCF7D1F9A8
:105280006C486C38006800F0007008B10E20E3E74D
:105290006C480078022808D10402DDE90601400AC2
:1052A00040EAC1504912CDE90601002C1FDDB4F5DA
:1052B000006F1CDC601E2040C8B92046FFF7FAFAD8
:1052C00003906148046010205F4948604020886076
:1052D0000020C8604FF4806008610846FCF775F94B
:1052E0001020FEF786FC06461EB13046B4E72620A5
:1052F000B2E7012F6FD907FB04F0B0F1007F01D3B3
:105300002620A9E74F48007838B14E480078012898
:1053100003D04C48007802282DD14C480088000466
:105320004949086037204860402088600020C860F4
:105330004FF4806008610846FCF747F93720FEF714
:1053400058FC06460EB1304686E73F4807601720F6
:105350003D494860402088600020C8604FF480606C
:1053600008610846FCF731F91720FEF742FC0646B3
:105370000EB1304670E7344906980860192048603D
:10538000402088600020C8604FF4806008610846B3
:10539000FCF71BF91920FEF72CFC06460EB130462F
:1053A0005AE7039800012149886007FB04F0486030
:1053B0004FF0FF300860012048610020C86008619C
:1053C0000846FCF72EF91A480078002872D1451ECD
:1053D000FAF767FF54E0F8E04FF48040FCF788F9F3
:1053E000B0B3ABEB0800202833D2ABEB080000F0E1
:1053F000030018B9ABEB0800800803E0ABEB080032
:105400008008401C01904FF0000909E00949DAF8D2
:105410000000086009F101090AF1040A08F1040812
:1054200001988145F2D324E0B9000020A4160020A1
:10543000B8000020802C0140BA000020BB000020F2
:1054400000640240B000002090160020B40000204C
:1054500012E04FF0000905E05AF82900F74908600A
:1054600009F10109B9F1080FF6D30AF1200A08F190
:1054700020086FF0404503E00DB90420ECE66D1EF6
:10548000EE484C38006840F21A3108400028A3D09A
:105490000820FCF72DF920B10820FCF734F904208E
:1054A000DAE60220FCF724F928B10220FCF72BF9F8
:1054B0000220D1E640E01020FCF71AF920B11020BC
:1054C000FCF721F90520C7E64FF40070FCF710F94E
:1054D00028B14FF40070FCF716F90720BCE64FF432
:1054E0008070FCF705F900B3D548007838B1D4488E
:1054F0000078012803D0D2480078022815D1002076
:10550000D04908600C204860402088600020C860B6
:105510004FF4806008610846FCF757F80C20FEF74E
:1055200068FB06460EB1304696E6FAF7BCFE40F23E
:10553000FF50FCF7E8F848E0C3480078012844D160
:105540000020C24908700120C14908700020C149EB
:105550000870BA484438006840F21A310843B74925
:105560004439086007FB04F140220498FFF767F90B
:10557000B2485438006840F00800B0495439086017
:105580004FF0FF3500E06D1EB348006800F000608A
:1055900008B9002DF7D11DB9FFF7A4F804205BE688
:1055A0004FF0FF3500E06D1EAA48007820B9A748EB
:1055B000007808B9002DF6D10DB904204CE6A348B7
:1055C000007810B1A148007846E640F2FF50FCF7A1
:1055D0009AF802A8FFF715FC064603E002A8FFF7B9
:1055E00010FC06463EB99DF808000728F6D09DF845
:1055F00008000628F2D030462EE610B54FF4807031
:10560000FCF776F888B392480078012814D100207E
:105610008C4908600C204860402088600020C860E9
:105620004FF4806008610846FBF7CFFF0C20FEF7BF
:10563000E0FA8649087002E00020844908707F483B
:105640004838006840F480707C4948390860081D7B
:1056500000684CF23A3188437849443908600120A7
:105660007C4908707948007810BDFFE70220FCF7FC
:105670003FF878B10220FCF746F8704844380068DB
:105680004CF23A3188436D494439086002206F4931
:105690000870E9E70820FCF72BF878B10820FCF740
:1056A00032F86648443800684CF23A31884363491E
:1056B00044390860042065490870D5E72020FCF7CC
:1056C00017F878B12020FCF71EF85C4844380068D1
:1056D0004CF23A31884359494439086006205B4905
:1056E0000870C1E71020FCF703F878B11020FCF730
:1056F0000AF85248443800684CF23A3188434F491E
:1057000044390860052051490870ADE74FF4007036
:10571000FBF7EEFF80B14FF40070FBF7F4FF474852
:10572000443800684CF23A318843444944390860AF
:1057300007204649087097E7002095E710B5FFF766
:105740005CFF10BD70B50446002514B92625284617
:1057500070BD4248008800043A4908600D20486046
:10576000402088600020C8604FF4806008610846CF
:10577000FBF72BFF0D20FEF73CFA05460DB128463E
:10578000E6E72E486C38006820602846E0E708B558
:10579000002000906846FFF7D5FF08B1FF2008BD44
:1057A0000098C0F34320FAE72DE9FE4F83460C46EC
:1057B000914600200290002625462C46700240EAC1
:1057C000D5566D020BF00300F0B14FF0000A18E05F
:1057D0004FF4007000904FEA4A20471946EBE073FF
:1057E0003A461F48FFF76FF802904FF400721C49C9
:1057F000584611F097FB0BF5007B0AF1010000F011
:10580000FF0ACA45E4DB16E0B9F1010F09D14FF4F4
:1058100000702A46334600905846FFF754F802902D
:1058200009E04FF400702A463346CDE90009584696
:10583000FFF76AF902900298BDE8FE8F802C0140C4
:10584000B000002090160020B8000020BA00002010
:10585000B9000020BB00002000640240B40000201A
:10586000381700202DE9FE4F81460C469246002055
:105870000290002625462C46700240EAD5566D025D
:1058800009F00300F0B14FF0000B18E04FF4007284
:105890004946194811F046FB4FF4007000904FEA5A
:1058A0004B20471946EBE0733A461348FFF7F4FAEA
:1058B000029009F500790BF1010000F0FF0BD345D0
:1058C000E4DB16E0BAF1010F09D14FF400702A466B
:1058D000334600904846FFF7DFFA029009E04FF4A4
:1058E00000702A463346CDE9000A4846FFF79DFC82
:1058F00002900298BDE8FE8F3817002038B50446A4
:105900000025FDF7B6FDEC20FDF75FFEFDF7F2FD8B
:105910002046FDF75AFEFDF7EDFDFDF7CCFD0A2010
:10592000FCF7FFFFFDF7A5FDEC20FDF74EFEFDF7B0
:10593000E1FD0020FDF749FEFDF7DCFDFDF7BBFDB5
:10594000FDF797FDED20FDF740FEFDF7D3FD0120AB
:10595000FDF768FE8DF800000120FDF763FE8DF86D
:1059600001000020FDF75EFE8DF80200FDF7A3FDAB
:105970009DF8000001049DF8010001EB00209DF856
:1059800002104518284638BD2DE9F0414820FFF7A0
:10599000B5FF0446D0484089A4EB0020CF490860F9
:1059A000CD4881890022CD480068C717A1FB005C63
:1059B00002FB00C001FB07014FF400020023284650
:1059C00011F0C6F94FF4FA614018C5490860BDE806
:1059D000F0812DE9F04F2DED048B89B04820FFF7C1
:1059E0008DFF8146BC4800890022BC490968CB175D
:1059F000A0FB01CE02FB01E100FB0310802200238B
:105A0000CDE904C06046059911F0A2F9B24A928826
:105A10004FF48033A2FB032310EB020A41EB030B8C
:105A2000AD48C1880022AD480068C317A1FB00CE75
:105A300002FB00E001FB03004FF480720023CDE97C
:105A400004C06046059911F083F9A34A52884FF4C7
:105A50000043A2FB0323844608461CEB0201584185
:105A6000CDE906104FF4FA609D49086008460068C9
:105A7000B0F5FA6F37DA99480168006881FB0021B8
:105A800003230020A2FB03CE01FB03E102FB001075
:105A900000220223CDE904C06046059911F058F9AF
:105AA00080468F490968A1F5FA6101EB41018C4AF2
:105AB0001268A2F5FA6201FB02F000EBD0714C1003
:105AC000E51787490968A1F5FA6101EB8101844A6C
:105AD0001268A2F5FA6201FB02F0C11700EB5171E6
